:020000040800F2
:10000000209600205D020008A9430008293A000854
:10001000A5430008570800080D78000800000000FC
:100020000000000000000000000000009D0100082A
:100030004312000800000000F90100087D6E00086E
:1000400077020008770200087702000877020008AC
:1000500077020008770200084512000877020008BE
:10006000770200084F1200085912000877020008B2
:10007000770200087702000877020008770200087C
:10008000770200087702000877020008770200086C
:100090005D08000877020008770200086312000874
:1000A000770200087702000877020008770200084C
:1000B000770200087702000877020008770200083C
:1000C000770200087702000877020008770200082C
:1000D000770200087702000877020008DD76000842
:1000E000770200087702000877020008770200080C
:1000F00077020008770200087702000877020008FC
:1001000077020008770200087702000877020008EB
:1001100077020008770200087702000877020008DB
:100120007702000877020008CD080008770200086F
:1001300077020008770200087702000877020008BB
:100140006D080008770200087702000877020008AF
:10015000770200087702000877020008770200089B
:10016000770200087702000877020008770200088B
:1001700077020008770200087702000800000000FC
:100180007702000877020008DFF80CD000F026FBA9
:1001900000480047218D0008209600202C4B19684C
:1001A0000868B0E8F04F80F30988BFF36F8F4FF015
:1001B000000080F3118870470000000008480068C4
:1001C000006880F308884FF0000080F3148862B65E
:1001D00061B6BFF34F8FBFF36F8F00DF00BF00BF6B
:1001E00008ED00E0DFF80C00016841F470010160E7
:1001F000704700BF88ED00E0EFF30980BFF36F8F19
:10020000134B1A681EF0100F08BF20ED108A20E96A
:10021000F04F106009B44FF0500080F31188BFF325
:100220004F8FBFF36F8F09F0A3FF4FF0000080F3F3
:10023000118809BC19680868B0E8F04F1EF0100F6B
:1002400008BFB0EC108A80F30988BFF36F8F704746
:1002500064010020EFF305807047000006488047E6
:1002600006480047FEE7FEE7FEE7FEE7FEE7FEE79B
:10027000FEE7FEE7FEE7FEE7656F0008890100087C
:10028000DFED190AB5EEC00A60EE200ABDEEE01AF5
:1002900011EE100AF1EE10FA38BF401E00EE100AFF
:1002A0001349F7EE001AB8EEC00A30EEC00ADFEDCF
:1002B0000F0A60EE200ABCEEE00A10EE100AC0F34E
:1002C000080000EE100A01EB8000B8EE400A90ED45
:1002D000011A70EEC00A90ED000A71EEE01A21EEEC
:1002E000800A00EE810A704783F9223E0000004434
:1002F0002CB000082DE9F05F0546002092469B4691
:1003000088460646814640241BE02846414647462B
:10031000224600F0ACF953465A46C01A914110D318
:1003200011461846224600F093F92D1A67EB010892
:100330004F4622460120002100F08AF917EB000900
:100340004E41201EA4F10104DFDC484631462A4616
:100350004346BDE8F09F40EA01039B0703D009E054
:1003600008C9121F08C0042AFAD203E011F8013BA1
:1003700000F8013B521EF9D27047D2B201E000F8FA
:10038000012B491EFBD270470022F6E710B5134639
:100390000A4604461946FFF7F0FF204610BD2DE936
:1003A000FE4F804681EA0300C00F0C46009021F00A
:1003B000004123F00045B8EB0200A94105D24046B8
:1003C000214690461C460B46024623F0004010434F
:1003D00047D0270DC7F30A00C3F30A510290401A11
:1003E000019040286BDAC3F3130040F4801B00989F
:1003F000924620B10023D2EB030A63EB0B0B01986A
:100400005946C0F14002504600F022F906460D461A
:1004100050465946019A00F03AF910EB0800614144
:10042000002487EA115284EAE7731A4340D0009A05
:1004300062B3019A012A4FEA075215DC001B61EBF7
:1004400002014FF0004202EA0752CDE90042001CCF
:1004500041F5801132462B4600F071F903B0BDE83A
:10046000F08F40462146F9E7001B61EB0201001CBA
:1004700041F5801300185B412018A2F5001747EBE7
:10048000030140EAD570B6196D4111E06D084FEADD
:10049000360645EAC0754FEA0752001B61EB0201C0
:1004A000001C41F5801149084FEA30000019514104
:1004B00032462B4603B0BDE8F04F00F031B900984A
:1004C000012240000023D0EB020263EBE0730098AE
:1004D00021464FEAE074B8EB000061EB0401E9E764
:1004E00083F000435BE781F0004158E72DE9FE4FC0
:1004F00081EA030404F0004421F0004100944FF02D
:10050000000B23F0004350EA01045ED052EA0304DA
:100510005BD0C3F30A54C1F30A552C44A4F2F3345C
:100520000194A0FB0254C1F3130141F48011C3F301
:10053000130343F4801301FB024400FB034E840ABF
:10054000970A44EA815447EA8357A4FB0768029557
:100550008D0A05FB07854FEA932C04FB0C542705F5
:10056000029D4FEA065847EA1637B5EB08056EEBD1
:10057000070C870E920E47EA811742EA8312A7FB07
:100580000201B6EB0B0164EB00042B0D43EA0C33C4
:100590005E1844EB1C50DA465146E7FB0201C5F3F6
:1005A00013044FEA0B3343EA14534FEA0432019C1D
:1005B00043EA0603A4F10C040294009CCDE900B4C4
:1005C00000F0BDF803B0BDE8F08F00200146F9E768
:1005D0000EB5C10F80EAE0700844CA07002140F25E
:1005E00033438DE80E000A460B4600F0A8F803B02E
:1005F00000BD00F0004230F000400AD0C10D01F50E
:100600006071C0F3160042EA0151C208400711436D
:10061000704700200146704701F0004330B421F0DC
:10062000004150EA010206D00A0DA2F56072C1F342
:100630001301002A02DC30BC00207047440F44EA5A
:10064000C104C100E01830BC00EBC25000F031B86A
:10065000202A04DB203A00FA02F100207047914082
:10066000C2F1200320FA03F3194390407047202A77
:1006700004DB203A21FA02F00021704721FA02F34C
:10068000D040C2F120029140084319467047202A09
:1006900006DBCB17203A41FA02F043EAE07306E0AA
:1006A00041FA02F3D040C2F12002914008431946BA
:1006B00070470029A8BF7047401C490008BF20F0C0
:1006C0000100704710B4B0FA80FC00FA0CF050EA58
:1006D000010404BF10BC704749B1CCF1200421FAD9
:1006E00004F411FA0CF118BF012121430843A3EBD4
:1006F0000C01CB1D4FEA00614FEA102042BF0020E1
:1007000010BC704700EBC35010440029A4BF10BCBC
:100710007047401C490008BF20F0010010BC704722
:1007200010B5141E73F1000408DA401C41F10001F9
:1007300092185B411A4301D120F0010010BD2DE950
:10074000F04D92469B4611B1B1FA81F202E0B0FA47
:1007500080F220329046FFF77BFF04460F4640EAC6
:100760000A0041EA0B0153465A46084313D011468A
:1007700053EA010019D0C8F140025046FFF777FF55
:1007800005460E46504659464246FFF761FF08436C
:1007900005D0012004E020463946BDE8F08D002058
:1007A000054346EAE0762C4337430A986305E40A9A
:1007B000A0EB08000022FD0A44EA47540A3002D5A3
:1007C00000200146E9E7010510196941DDE9084506
:1007D00000196941BDE8F04DA2E70000064C074D45
:1007E00006E0E06840F0010394E807009847103401
:1007F000AC42F6D3FFF7CCFC44B8000864B800085C
:1008000070B58C1810F8015B15F0070301D110F8D2
:10081000013B2A1106D110F8012B03E010F8016BFF
:1008200001F8016B5B1EF9D12B0705D40023521E82
:100830000DD401F8013BFAE710F8013BCB1A921CEA
:1008400003E013F8015B01F8015B521EF9D5A142E8
:10085000D8D3002070BD00BFFEE7000010B50248ED
:1008600000F016FF10BD00008008002010B50248FF
:1008700000F00EFF10BD0000A8080020F8B50746E4
:100880000C4615461E464FF400700D4908600020C6
:100890008860C86008200861380A0A4908704F70EB
:1008A000200A8870CC70280A08714D71300A88714E
:1008B000CE716B460A460249034800F0EDFCF8BDD4
:1008C000F40D0020840000208008002010B5FE48B0
:1008D000C06C0068FD49884276D9FC4854380068ED
:1008E000F949C96C0968FA4A914201D1202169E0AD
:1008F000F549C96C0968F54A483A914201D120216D
:1009000060E0F149C96C0968F14A6032914201D155
:10091000202157E0EC49C96C0968EC4A1832914231
:1009200001D120214EE0E849C96C0968E84A183233
:10093000914201D1C91445E0E349C96C0968E34A11
:10094000303A914201D1C9143CE0DF49C96C0968D1
:10095000DF4A7832914201D1C91433E0DA49C96CD7
:100960000968DA4A3032914201D1C9142AE0D649E5
:10097000C96C0968D64A3032914202D14FF4001155
:1009800020E0D149C96C0968D04A183A914202D195
:100990004FF4001116E0CC49C96C0968CC4A90327A
:1009A000914202D14FF400110CE0C749C96C0968AB
:1009B000C64A4832914203D14FF4001102E003E0ED
:1009C0004FF00061084070E1BF48C06C0068C0494A
:1009D000A831884276D9BD4858380068BA49C96CF0
:1009E0000968BB4A914201D1202169E0B649C96C2E
:1009F0000968B64A483A914201D1202160E0B249E3
:100A0000C96C0968B24A6032914201D1202157E095
:100A1000AD49C96C0968AD4A1832914201D1202113
:100A20004EE0A949C96C0968A94A1832914201D11E
:100A3000C91445E0A449C96C0968A44A303A9142F6
:100A400001D1C9143CE0A049C96C0968A04A7832B8
:100A5000914201D1C91433E09B49C96C09689B4A92
:100A60003032914201D1C9142AE09749C96C096812
:100A7000974A3032914202D14FF4001120E092495E
:100A8000C96C0968914A183A914202D14FF4001199
:100A900016E08D49C96C09688D4A9032914202D1A5
:100AA0004FF400110CE08849C96C0968874A483244
:100AB000914203D14FF4001102E003E04FF00061D6
:100AC0000840F2E08048C06C0068814948318842A3
:100AD00076D97F48103840687B49C96C09687C4AE0
:100AE000914201D1202169E07749C96C0968774AB0
:100AF000483A914201D1202160E07349C96C0968EC
:100B0000734A6032914201D1202157E06E49C96C8D
:100B100009686E4A1832914201D120214EE06A499B
:100B2000C96C09686A4A1832914201D1C91445E07A
:100B30006549C96C0968654A303A914201D1C914C6
:100B40003CE06149C96C0968614A7832914201D13F
:100B5000C91433E05C49C96C09685C4A303291427F
:100B600001D1C9142AE05849C96C0968584A303281
:100B7000914202D14FF4001120E05349C96C096839
:100B8000524A183A914202D14FF4001116E04E49F0
:100B9000C96C09684E4A9032914202D14FF400115B
:100BA0000CE04949C96C0968484A4832914203D16E
:100BB0004FF4001102E003E04FF00061084074E0E0
:100BC0004348103800684049C96C0968404A91425E
:100BD00001D1202168E03C49C96C09683B4A483A88
:100BE000914201D120215FE03749C96C0968384A38
:100BF0006032914201D1202156E03349C96C096825
:100C0000324A1832914201D120214DE02E49C96C5F
:100C100009682F4A1832914201D1C91444E02A4987
:100C2000C96C0968294A303A914201D1C9143BE0A4
:100C30002549C96C0968264A7832914201D1C91404
:100C400032E02149C96C0968204A3032914201D111
:100C5000C91429E01C49C96C09681D4A3032914207
:100C600002D14FF400111FE01749C96C0968174AF7
:100C7000183A914202D14FF4001115E01249C96CA3
:100C80000968134A9032914202D14FF400110BE0EF
:100C90000D49C96C09680D4A4832914202D14FF49E
:100CA000001101E04FF00061084000286FD00648B5
:100CB000C06C0068054988427BD90348C06C006855
:100CC0000349884208D105E04409002058640240E5
:100CD00010600240202068E0FE48C06C0068FE49B9
:100CE000884201D1202060E0FA48C06C0068FB49CE
:100CF000884201D1202058E0F648C06C0068F649CF
:100D00006031884201D120204FE0F248C06C006879
:100D1000F2494839884201D1C01446E0ED48C06C20
:100D20000068ED491831884201D1C0143DE0E9481E
:100D3000C06C0068E9491831884201D1C01434E020
:100D4000E448C06C0068E4497831884201D1C0149D
:100D50002BE0E048C06C0068E0493039884202D19D
:100D60004FF4001021E0DB48C06C0068DA493031F4
:100D7000884202D14FF4001017E0D648C06C0068DA
:100D8000D6493031884204D14FF400100DE0DFE144
:100D90000FE0D048C06C0068CF499031884202D142
:100DA0004FF4001001E04FF00060CB49091F0860CC
:100DB0006AE1C848C06C0068C8494831884274D9A3
:100DC000C448C06C0068C5496039884201D1202000
:100DD00066E0C048C06C0068BF49884201D120204D
:100DE0005EE0BC48C06C0068BC49884201D120204C
:100DF00056E0B848C06C0068B7496031884201D1FC
:100E000020204DE0B348C06C0068B449483988429E
:100E100001D1C01444E0AF48C06C0068AE4918313D
:100E2000884201D1C0143BE0AA48C06C0068AB49BD
:100E30001831884201D1C01432E0A648C06C006865
:100E4000A5497831884201D1C01429E0A148C06C7D
:100E50000068A2493039884202D14FF400101FE0E7
:100E60009C48C06C00689C493031884202D14FF4E4
:100E7000001015E09748C06C0068984930318842EE
:100E800002D14FF400100BE09248C06C0068924908
:100E90009031884202D14FF4001001E04FF0006021
:100EA0008D4908390860EFE0FFE78A48C06C0068A8
:100EB0008A491839884274D98648C06C00688749C5
:100EC0006039884201D1202066E08248C06C006809
:100ED0008149884201D120205EE07E48C06C0068D4
:100EE0007E49884201D1202056E07A48C06C0068D3
:100EF00079496031884201D120204DE07548C06CAD
:100F0000006876494839884201D1C01444E07148EC
:100F1000C06C006870491831884201D1C0143BE0B0
:100F20006C48C06C00686D491831884201D1C0140A
:100F300032E06848C06C006867497831884201D166
:100F4000C01429E06348C06C0068644930398842A5
:100F500002D14FF400101FE05E48C06C00685E498B
:100F60003031884202D14FF4001015E05948C06C6E
:100F700000685A493031884202D14FF400100BE02A
:100F80005448C06C006854499031884202D14FF4F3
:100F9000001001E04FF0006050497039C86073E004
:100FA000FFE74C48C06C00684C496039884201D169
:100FB000202066E04748C06C00684749884201D15C
:100FC00020205EE04348C06C00684449884201D15B
:100FD000202056E03F48C06C00683F49603188429D
:100FE00001D120204DE03B48C06C00683B494839A6
:100FF000884201D1C01444E03648C06C00683649CC
:101000001831884201D1C0143BE03248C06C0068FE
:1010100032491831884201D1C01432E02D48C06CE9
:1010200000682D497831884201D1C01429E029484F
:10103000C06C006829493039884202D14FF4001051
:101040001FE02448C06C006823493031884202D137
:101050004FF4001015E01F48C06C00681F49303184
:10106000884202D14FF400100BE01A48C06C0068AF
:1010700019499031884202D14FF4001001E04FF03D
:1010800000601649703988601548007800F0020049
:1010900078B11348007820F0020011490870084622
:1010A000007840F004000870012211460D4801F05C
:1010B0000BF80D48007800F00200E0B10A48007813
:1010C00020F00200084908700846007840F004004B
:1010D00008700BE044090020106402407060024078
:1010E000CD00002000040240CE000020012210218B
:1010F000184800F0E9FF1848007800F0020078B1C5
:101100001548007820F0020013490870084600785E
:1011100040F004000870012210210E4800F0D4FFB6
:1011200007F01AFD0D48007800F0040080B10B486C
:10113000007820F00400094908700846007840F063
:10114000080008700648006840F001000449086083
:1011500010BD000000000240CF000020CD000020A4
:10116000103C01400146087810381823B0FBF3F218
:101170000848805CC865032A05D908686FF3090030
:10118000001D886503E008686FF309008865886DB5
:101190007047000024B00008014600208A6A8B696D
:1011A000CBB932B1012A0DD0022A03D0032A10D1C3
:1011B0000EE000BFCB6A03F08073B3F1807F00D1F3
:1011C000012007E0CB6AB3F1C07F00D1012001E02C
:1011D00000E000BF34E08B69B3F5005F1AD132B193
:1011E000012A07D0022A03D0032A11D10AE000BF46
:1011F00001200EE0CB6A03F08073B3F1807F00D151
:10120000012006E0CB6AB3F1C07F00D1012000E0ED
:1012100000BF15E032B1012A05D0022A04D0032A0A
:101220000CD103E000BF00BF012008E0CB6A03F04F
:101230008073B3F1807F00D1012000E000BF00BFC8
:101240007047704710B5012000F030FE10BD10B59A
:10125000082000F02BFE10BD10B5102000F026FE77
:1012600010BD10B5202000F021FE10BD704710B554
:10127000024692F82030012B01D0022B06D11068D3
:101280004069084314686061002010BD506A40F452
:10129000802050620120F8E7F0B504460D461E4656
:1012A00094F8207020688368A86800B900E000BF47
:1012B000012F01D0022F7CD103F0806030B903F000
:1012C000006018B903F08050002873D0C3F30161A7
:1012D000022905D9606A40F4000060620120F0BD77
:1012E000012088403060A86860B9B5F800C0E8689F
:1012F00040EA4C5C206800F5C07000EB0110C0F8BB
:1013000000C00FE0D5E901C040EACC00D5F80CC020
:1013100040EA0C00D4F800C00CF5C07C0CEB011CBA
:10132000CCF80000D5F810C0206800F5C07000EBC4
:101330000110C0F804C0287D01280ED1206800F5F6
:10134000C07000EB0110406840F4807C206800F51C
:10135000C07000EB0110C0F804C0D079000692F80C
:1013600006C040EA0C4092F805C040EA0C2C107907
:101370004CEA000C206800F5C07000EB0110C0F8CA
:101380000CC0D078000692F802C040EA0C4092F8F7
:1013900001C040EA0C2092F800C040EA0C00D4F8EA
:1013A00000C00CF5C07C0CEB011CCCF808002068D8
:1013B00001E016E00FE000F5C07000EB01100068DE
:1013C00040F0010C206800F5C07000EB0110C0F87F
:1013D00000C0002083E7606A40F4001060620120D2
:1013E0007DE7606A40F480206062012077E70000BA
:1013F000F0B504460A46216894F82050012D01D02A
:10140000022D7ED1424901F50071086840F00100CB
:101410000860086820F47C5008600868566A40EA52
:1014200006200860107D00F01F06012000FA06F378
:10143000C8699843C861A1F50071D069C8B9D1F8ED
:101440000C029843C1F80C02908880B2968940EA59
:10145000064601F51070576940F83760108880B271
:10146000168940EA064601F51070576900EBC7007F
:101470004660D069012819D1D1F80C021843C1F88F
:101480000C02908880B2168840EA064601F510707A
:10149000576940F83760908980B2168940EA06465D
:1014A00001F51070576900EBC7004660906928B9D4
:1014B000D1F804029843C1F8040204E0D1F8040210
:1014C0001843C1F80402106928B9D1F814029843EE
:1014D000C1F8140204E0D1F814021843C1F8140250
:1014E000106A012804D1D1F81C021843C1F81C026B
:1014F000D1F8000220F00100C1F800020020F0BD88
:10150000FFE7606A40F4802060620120F7E7000096
:1015100000640040704770B5044694F82050012DD7
:1015200001D0022D7DD151B92068C06800F00300C0
:1015300080B9606A40F400106062012070BD2068CC
:10154000006900F0030028B9606A40F4001060628E
:101550000120F3E7206800F5D87000EB0110006867
:1015600000F004009060906840B9206800F5D870E1
:1015700000EB01100068400D106007E0206800F5E6
:10158000D87000EB01100068C0085060206800F5BA
:10159000D87000EB0110006800F00200D0602068F5
:1015A00000F5D87000EB0110406800F00F001061EA
:1015B000206800F5D87000EB0110406800F47F400F
:1015C000000A9061206800F5D87000EB01104068B7
:1015D000000C5061206800F5D87000EB01108068A5
:1015E0001870206800F5D87000EB0110806800F4D6
:1015F0007F40000A5870206800F5D87000EB011099
:10160000806800F47F00000C9870206800F5D870A6
:1016100000EB01108068000ED870206800F5D870CB
:1016200000E02FE000EB0110C0681871206800F5A1
:10163000D87000EB0110C06800F47F40000A5871B8
:10164000206800F5D87000EB0110C06800F47F003E
:10165000000C9871206800F5D87000EB0110C0688C
:10166000000ED87131B92068C06840F020002668AB
:10167000F06005E02068006940F0200026683061D5
:1016800000205BE7606A40F480206062012055E73B
:101690002DE9F05F04460025206846692068D0F8EF
:1016A0000490206887682068D0F80CA02068D0F8E3
:1016B00010B02068D0F8188006F00100002855D03E
:1016C00007F00100C0B101202168886007F0020026
:1016D00018B1204600F011FB0EE007F0040010B135
:1016E00045F4006508E007F0080010B145F48055A6
:1016F00002E0204600F000FB07F48070C8B14FF410
:1017000080702168886007F4007018B1204600F0EE
:10171000F6FA0EE007F4806010B145F4005508E0D9
:1017200007F4006010B145F4804502E0204600F067
:10173000E5FA07F48030C8B14FF480302168886042
:1017400007F4003018B1204600F0DBFA0EE007F491
:10175000802010B145F4004508E007F4002010B1E6
:1017600045F4803502E0204600F0CAFA06F0080091
:1017700038B10AF0100020B145F40075102021683E
:10178000C86006F0040040B10AF0080028B1082043
:101790002168C860204600F00DFA06F0020038B15A
:1017A0002068C06800F0030010B1204600F004FA81
:1017B00006F0400038B10BF0100020B145F4806510
:1017C00010202168086106F0200040B10BF00800ED
:1017D00028B1082021680861204600F05BFA06F075
:1017E000100038B12068006900F0030010B12046F5
:1017F00000F051FA06F4003040B109F0100028B1B1
:10180000102021684860204600F046FA06F4803037
:1018100040B109F0080028B108202168486020463E
:1018200000F070FA06F4004088B309F0040078B3C1
:1018300006F4807020B108F0010008B145F0010500
:1018400006F4007020B108F0020008B145F002056E
:1018500006F4806020B108F0040008B145F00405EA
:1018600006F40060A0B108F0700088B108F07000C4
:10187000402817D006DC10280BD020280CD03028A8
:1018800019D10CE0502810D0602814D110E01DE0D0
:1018900019E045F008050FE045F010050CE045F0B3
:1018A000200509E045F0400506E045F0800503E02D
:1018B00045F4807500E000BF00BF2068806920F01B
:1018C0007000216888610420216848602DB1606A39
:1018D000284360622046FFF71DFEBDE8F09F70B50B
:1018E00004460CB9012070BD94F8200010B92046C0
:1018F00000F0B0F82068006820F00200216808605D
:1019000000F0E8FB05460DE000F0E4FB401B0A2870
:1019100008D9606A40F400306062052084F8200035
:101920000120E0E72068406800F002000028EBD1C9
:101930002068006840F001002168086000F0CAFBE0
:1019400005460DE000F0C6FB401B0A2808D9606A76
:1019500040F400306062052084F820000120C2E7D6
:101960002068406800F001000028EBD0207E0128AC
:1019700006D12068006840F080002168086005E01A
:101980002068006820F0800021680860607E0128DF
:1019900006D12068006840F040002168086005E03A
:1019A0002068006820F0400021680860A07E0128BF
:1019B00006D12068006840F020002168086005E03A
:1019C0002068006820F0200021680860E07E01287F
:1019D00006D12068006820F010002168086005E04A
:1019E0002068006840F0100021680860207F01280E
:1019F00006D12068006840F008002168086005E012
:101A00002068006820F0080021680860607F0128D5
:101A100006D12068006840F004002168086005E0F5
:101A20002068006820F0040021680860D4E9020101
:101A3000084321690843616908436168491E0843F6
:101A40002168C86100206062012084F82000002025
:101A500049E7000010B586B00446142101A8FEF73E
:101A600093FC4E492068884241D14D480068401C93
:101A70004B4908600846006801280FD100BF0020CC
:101A800000904848006840F00070464908600846E9
:101A9000006800F00070009000BF00BF00BF002091
:101AA000009040481038006840F008003D49103967
:101AB00008600846006800F00800009000BF00BF02
:101AC0000320019002200290002003900320049044
:101AD0000920059001A9344800F0F6F900220621FA
:101AE000142000F0D3FC142000F0C0FC54E02F4977
:101AF0002068884250D100BF00200090294800682B
:101B000040F08060274908600846006800F0806067
:101B1000009000BF00BF22480068401C20490860B8
:101B20000846006801280FD100BF002000901D4822
:101B3000006840F000701B4908600846006800F02B
:101B40000070009000BF00BF00BF0020009015484B
:101B50001038006840F00200124910390860084649
:101B6000006800F00200009000BF00BF60200190FC
:101B70000220029000200390032004900920059089
:101B800001A90B4800F0A0F900220621402000F036
:101B90007DFC402000F06AFC06B010BD00640040EF
:101BA0001800002040380240000C0240006800404D
:101BB000000402407047000010B58AB0044601AB33
:101BC00003AA00212046FFF7A6FC0398A0F20120FB
:101BD000072857D2DFE800F00405060708090A00C5
:101BE00000BF00BF00BF00BF00BF00BF0398401E82
:101BF000264908700846007800EB8000244931F837
:101C0000100000B22149097801EB8101204A02EB62
:101C1000410108819DF805009DF8041040EA01206B
:101C20001A49097801EB810122F811009DF807009B
:101C30009DF8061040EA012000B21449097801EB32
:101C4000810102EB410148809DF809009DF80810D0
:101C500040EA012000B20D49097801EB810102EB55
:101C6000410188809DF80A000849097801EB81014B
:101C700002EB4101887105490978491CC8B206F098
:101C800013FE00E000BF00BF0AB010BD8C000020B2
:101C9000940D002070477047704770B5044694F863
:101CA0002000012822D1022084F82000206800684A
:101CB00020F001002168086000F00CFA05460DE0F4
:101CC00000F008FA401B0A2808D9606A40F4003086
:101CD0006062052084F82000012070BD2068406803
:101CE00000F001000028EBD16062F6E7606A40F482
:101CF000002060620120F0E770477047704770472E
:101D000070477047704700002DE9F04104460025F8
:101D100000F0E0F9074614B90120BDE8F081606ADF
:101D200000B100BF00BF002084F8340000BF0220D3
:101D300084F835002068006820F001002168086000
:101D40000AE000F0C7F9C01B052805D9202060650E
:101D5000032084F83500E0E72068006800F0010007
:101D60000028EED12068056821480540D4E901012A
:101D70000843E16808432169084361690843A16990
:101D80000843E1690843216A08430543606A04285F
:101D900003D1D4E90B01084305432068056020689E
:101DA000456925F00705606A0543606A04280DD17E
:101DB000A06A0543E06A48B12046FFF7EDF928B173
:101DC00040206065012084F83500A6E72068456161
:101DD0002046FFF7C7F9064694F85C103F2088407C
:101DE000B06000206065012084F83500002094E791
:101DF0003F8010F010B50446102C14D1092006F0D5
:101E000053FD2248007840F0010020490870204826
:101E1000007840F001001E4908701E480078A0B309
:101E200006F09AFE31E0202C0ED1082006F03CFD91
:101E30001948007840F001001749087015480078EB
:101E400018B306F089FE20E0082C09D10A2006F01C
:101E50002BFD1248007840F001001049087014E092
:101E6000012C12D108F03CFE01280ED00C490D487F
:101E7000006808F065F80A48006830B120070A4990
:101E80000860BFF34F8FBFF36F8F10BDCE000020EF
:101E9000CF000020D1000020CD000020D000002085
:101EA00044010020A800002004ED00E010B5044625
:101EB00004480068204020B1024804602046FFF733
:101EC00099FF10BD143C0140F8B502460B460025B1
:101ED000002400200021DCE0012606FA01F51E683E
:101EE00006EA0504AC4273D15E68012E08D05E6834
:101EF000022E05D05E68112E02D05E68122E13D11C
:101F000090684F000326BE40B0434F00DE68BE40DD
:101F100030439060506801268E40B0431E79C6F36E
:101F200000168E4030435060D0684F000326BE40FC
:101F3000B0434F009E68BE403043D0605E68022EC2
:101F400002D05E68122E13D1CF0802F1200656F897
:101F500027004E07F70E0F26BE40B0434F07FF0E77
:101F60001E69BE403043CF0802F1200646F8270024
:101F700010684F000326BE40B0431E7906F00306EA
:101F80004F00BE40304310605E6806F08056B6F1E8
:101F9000805F7DD100BF00260096404E366846F433
:101FA00080463E4F3E603E46366806F480460096C8
:101FB00000BF00BF3A4E8F0856F827008E07370F34
:101FC0000F26BE40B043374EB24202D1002624E075
:101FD0005EE0354EB24201D101261EE0334EB242E0
:101FE00001D1022619E0324EB24201D1032614E09B
:101FF000304EB24201D104260FE02F4EB24201D141
:1020000005260AE02D4EB24201D1062605E02C4EEF
:10201000B24201D1072600E008268F073F0FBE40DD
:1020200030431F4E8F0846F82700264E3068A043E5
:102030005E6806F48036B6F5803F00D12043214E1D
:102040003060361D3068A0435E6806F40036B6F591
:10205000003F00D120431B4E361D3060361D3068D6
:10206000A0435E6806F48016B6F5801F00D12043B9
:10207000144E08363060361D3068A0435E6806F4A2
:102080000016B6F5001F00D120430E4E0C3630600E
:10209000491C1029FFF420AFF8BD0000443802406D
:1020A00008380140000002400004024000080240DD
:1020B000000C0240001002400014024000180240D0
:1020C000001C0240003C01400AB1816101E00B04A8
:1020D0008361704701480068704700005801002084
:1020E00070B504460CB9012070BD94F83D0028B9C4
:1020F000002084F83C00204600F0DAF8242084F820
:102100003D002068006820F0010021680860206818
:10211000006840F40040216808602068006820F4EE
:1021200000402168086000F09BFB05465C49606840
:10213000884206D85B48854201D2012007E0002092
:1021400005E05948854201D2012000E00020012825
:1021500000D1C9E75548B5FBF0F62068406820F08B
:102160003F003043216848604D496068884201D88B
:10217000701C07E04FF4967070434FF47A71B0FB17
:10218000F1F0401C2168096A21F03F0108432168F1
:10219000086243496068884214D8681E6168490033
:1021A000B0FBF1F0401CC0F30B00042801D2042066
:1021B0003DE0681E61684900B0FBF1F0401CC0F3CF
:1021C0000B0034E0A06838B9681E616801EB41017A
:1021D000B0FBF1F0401C0AE0681E616801EBC1022F
:1021E00002EB0111B0FBF1F0401C40F48040C0F361
:1021F0000B0008B901201AE0A06848B9681E6168A0
:1022000001EB4101B0FBF1F0401CC0F30B000CE00E
:10221000681E616801EBC10202EB0111B0FBF1F035
:10222000401CC0F30B0040F4804040F400402168A3
:10223000C9694CF6FF72914308432168C861D4E92B
:10224000070108432168096821F0C001084321689B
:102250000860D4E9031008432168896848F2FF3216
:102260009143084321688860D4E905010843216847
:10227000C96821F0FF0108432168C8602068006830
:1022800040F001002168086000202064202084F8CC
:102290003D000020206384F83E0000BF24E70000DA
:1022A000A086010080841E0000093D0040420F000E
:1022B00010B586B00446142101A8FEF765F82A4936
:1022C000206888424DD100BF002000902748006858
:1022D00040F00400254908600846006800F004004A
:1022E000009000BF00BF00BF0020009008460068BB
:1022F00040F0010008600846006800F0010000900E
:1023000000BF00BF481501901220029001200390E9
:10231000032004900420059001A91548FFF7D4FD7F
:102320004FF480700190122002900120039003204E
:1023300004900420059001A90E48FFF7C5FD00BFD9
:102340000020009009481030006840F40000074960
:10235000103108600846006800F40000009000BFDB
:1023600000BF06B010BD0000005C004030380240E5
:102370000008024000000240034800680349097851
:10238000084401490860704758010020600100209E
:1023900010B50D48006840F400700B49086008460D
:1023A000006840F4806008600846006840F480706F
:1023B0000860032000F0A8F80F2000F007F800F0F4
:1023C0002BF8002010BD0000003C024070B5044610
:1023D0000E4800784FF47A71B1FBF0F00C490968AF
:1023E000B1FBF0F5284600F07FFE08B1012070BD7A
:1023F000102C07D200222146501E00F047F8054855
:10240000046001E00120F2E70020F0E76001002015
:102410001C0000205C01002008B500BF00200090D7
:102420001148006840F480400F4908600846006881
:1024300000F48040009000BF00BF00BF002000906B
:10244000081F006840F08050091F086008460068B7
:1024500000F08050009000BF00BF00220F21901EAE
:1024600000F014F808BD0000443802400146084658
:10247000002809DB00F01F0301229A4043099B005A
:1024800003F1E023C3F8002100BF70472DE9F05F9E
:1024900080460D461646002705F0BAF9074639462C
:1024A0002A46334601F00700C0F1070ABAF1040FCB
:1024B00002D94FF0040A01E0C0F1070AD14600F149
:1024C000040ABAF1070F02D24FF0000A01E0A0F1AE
:1024D000030AD4464FF0010A0AFA09FAAAF1010ADE
:1024E0000AEA020A0AFA0CFA4FF0010B0BFA0CFB8B
:1024F000ABF1010B0BEA030B4AEA0B042146404601
:1025000005F08EF9BDE8F09F00BF00F00702064B12
:1025100019684FF6FF031940044B0B4343EA0221AD
:10252000014B196000BF70470CED00E00000FA0598
:10253000F8B5044600250026207800F0010020B9F7
:10254000207800F0040004282FD100205B49886621
:10255000FFF7C0FD054606E0FFF7BCFD401B022863
:1025600001D90320F8BD56480068C0F3C0600028B8
:10257000F2D160688101207A41EA007050498431CB
:10258000086001204D498866FFF7A4FD054606E076
:10259000FFF7A0FD401B022801D90320E2E74848CD
:1025A0000068C0F3C0600028F2D0207800F002007C
:1025B00002287DD100BF00200090414840300068D3
:1025C00040F080503E49403108600846006800F005
:1025D0008050009000BF00BF3A48006840F480700F
:1025E00038490860FFF776FD054606E0FFF772FD03
:1025F000401B022801D90320B4E73248006800F4E8
:1026000080700028F2D02E487030006800F44076C8
:102610004EB3A08900F44070B04224D028487030F6
:10262000006820F4407601202749086000200860F7
:10263000234870300660006800F0010098B1FFF791
:1026400049FD054608E0FFF745FD401B41F2883192
:10265000884201D9032085E7194870300068C0F32B
:1026600040000028EFD000BFA08900F44070B0F512
:10267000407F0CD112480830006820F4F810134A4B
:10268000E168114008430E490831086007E00C4832
:102690000830006820F4F81009490831086008483B
:1026A00070300068A189C1F30B010843044900E0C0
:1026B00002E07031086000BF002053E7000047428D
:1026C0000038024000700040400E4742FFFCFF0F00
:1026D00070B504460D460CB9012070BD584800681D
:1026E00000F00F00A84209D255490D700846006855
:1026F00000F00F00A84201D00120EEE7207800F0A2
:10270000020002281DD1207800F00400042805D121
:102710004C48006840F4E0504A490860207800F0D6
:102720000800082805D14748006840F46040454942
:1027300008604448006820F0F000A168084341495F
:102740000860207800F00100A8B36068012807D174
:102750003C4808380068C0F34040B8B90120BCE7E5
:102760006068022802D06068032807D1354808381D
:102770000068C0F3406048B90120AEE7314808382E
:102780000068C0F3400008B90120A6E72D480068A2
:1027900020F00300616808432A490860FFF79AFCAB
:1027A000064609E0FFF796FC801B41F2883188421B
:1027B00002D9032091E707E02248006800F00C00EE
:1027C0006168B0EB810FEDD11D48006800F00F008B
:1027D000A84209D91A490D700846006800F00F0098
:1027E000A84201D0012078E7207800F004000428F6
:1027F00007D11448006820F4E050E168084311490B
:102800000860207800F00800082808D10D4800680A
:1028100020F46040216940EAC1000A49086000F0E4
:102820003FF808490968C1F30311074A515CC840E1
:102830000649086006480068FFF7C8FD00204CE71D
:10284000003C024008380240ECAF00081C000020A9
:102850005C01002001480068704700001C00002057
:1028600000B5FFF7F7FF04490968C1F38221034A65
:10287000515CC84000BD000008380240FCAF0008B1
:1028800000B5FFF7E7FF04490968C1F34231034A85
:10289000515CC84000BD000008380240FCAF000891
:1028A0002DE9F047002400250026A14625480068B0
:1028B00000F00C0020B1042805D008283AD105E02A
:1028C000DFF8849039E0DFF8849036E01D48001F7F
:1028D000006800F03F041B48001F006800F48000FF
:1028E00078B11A481749091F0968C1F38811A0FB7C
:1028F00001700146224600233846FDF7FBFC0546E1
:102900000EE011480F49091F0968C1F38811A0FBA7
:1029100001700146224600233846FDF7EBFC0546D0
:102920000848001F0068C0F30140401C4600B5FB8A
:10293000F6F902E0DFF8109000BF00BF4846BDE89E
:10294000F0870000083802400024F400001BB700A4
:10295000F8B504460CB90120F8BD207800F001005C
:10296000002874D0F948006800F00C0004280DD04D
:10297000F648006800F00C00082813D1F348001F47
:10298000006800F48000B0F5800F0BD1EF480838E4
:102990000068C0F34040002859D06068002856D134
:1029A0000120D9E700BF6068B0F5803F08D1E74853
:1029B0000838006840F48030E449083908601EE0B7
:1029C0006068B0F5A02F0DD1E0480838006840F4E9
:1029D0008020DE49083908600846006840F48030ED
:1029E00008600CE0D9480838006820F48030D749E6
:1029F000083908600846006820F48020086000BF9D
:102A0000606890B1FFF766FB054606E0FFF762FBE2
:102A1000401B642801D903209EE7CC480838006891
:102A2000C0F340400028F1D011E0FFF753FB05460A
:102A300006E0FFF74FFB401B642801D903208BE71A
:102A4000C24808380068C0F340400028F1D120781F
:102A500000F0020002285FD1BC48006800F00C00C2
:102A600058B1BA48006800F00C0008281CD1B748DB
:102A7000001F006800F48000B0B9B448083800684E
:102A8000C0F3400020B1E068012801D0012063E7D5
:102A9000AE480838006820F0F800216940EAC1001B
:102AA000AA490839086037E0E06800B30120A84966
:102AB0000860FFF70FFB054606E0FFF70BFB401B26
:102AC000022801D9032047E7A04808380068C0F36E
:102AD00040000028F1D09D480838006820F0F80038
:102AE000216940EAC10099490839086014E00020D2
:102AF00097490860FFF7EEFA054606E0FFF7EAFAA5
:102B0000401B022801D9032026E7904808380068B6
:102B1000C0F340000028F1D1207800F00800082818
:102B20002CD16069A8B101208A490860FFF7D2FA68
:102B3000054606E0FFF7CEFA401B022801D9032024
:102B40000AE782486C300068C0F340000028F1D0EA
:102B500014E000207F490860FFF7BCFA054606E054
:102B6000FFF7B8FA401B022801D90320F4E67748A2
:102B70006C300068C0F340000028F1D1207800F0EC
:102B80000400042870D1002770483830006800F035
:102B9000805090B900BF002000906C483830006829
:102BA00040F080506949383108600846006800F0FC
:102BB0008050009000BF00BF01276748006800F404
:102BC0008070B0B96448006840F480706249086061
:102BD000FFF780FA054606E0FFF77CFA401B022863
:102BE00001D90320B8E65C48006800F48070002832
:102BF000F2D000BFA068012808D1544868300068AE
:102C000040F001005149683108601DE0A0680528C6
:102C10000DD14E486830006840F004004B496831DF
:102C200008600846006840F0010008600CE0474872
:102C30006830006820F001004449683108600846A7
:102C4000006820F00400086000BFA068A8B1FFF78A
:102C500041FA054609E0FFF73DFA401B41F2883191
:102C6000884202D9032077E626E0384868300068B9
:102C7000C0F340000028EED013E0FFF72BFA054622
:102C800008E0FFF727FA401B41F28831884201D95A
:102C9000032061E62D4868300068C0F3400000283A
:102CA000EFD1012F07D129483830006820F080503B
:102CB00026493831086000BFA069002845D0234864
:102CC000006800F00C0008285DD0A069022845D1FA
:102CD00000201F490866FFF7FDF9054606E0FFF7EB
:102CE000F9F9401B022801D9032035E617480838B6
:102CF0000068C0F340600028F1D1D4E9070108431F
:102D0000616A40EA81110122A06AC2EB500041EAE7
:102D100000412C20005D41EA00600C49091F086059
:102D200001200B490866FFF7D5F9054606E0FFF7D5
:102D3000D1F9401B022801D903200DE603480838C9
:102D40000068C0F340600028F1D03FE0083802403E
:102D500000004742800E47420070004000201C499E
:102D60000866FFF7B7F9054606E0FFF7B3F9401B21
:102D7000022801D90320EFE516480068C0F340603F
:102D80000028F2D122E0A069012800D1E4E5114831
:102D9000001D066806F48001E069814214D106F046
:102DA0003F01206A81420FD147F6C0703040616A0E
:102DB000884209D106F44031A06A814204D106F06C
:102DC0007061E06A814201D00120C5E50020C3E5C1
:102DD000000047420038024010B504460CB90120FB
:102DE00010BD607F20B900202077204600F060F8F9
:102DF0000220607700BFCA20216848625320216802
:102E0000486200BF204601F07BFC40B100BFFF20BC
:102E10002168486200BF042060770120E0E7206855
:102E200080682249084021688860216960680843F9
:102E300061690843216889680843216888602168BE
:102E4000E068086120680169208941EA0040216842
:102E500008612068C06820F080002168C860206890
:102E6000806800F0200060B9204600F02DF840B1E5
:102E700000BFFF202168486200BF04206077012066
:102E8000AEE72068006C20F4802021680864206888
:102E9000006CA16908432168086400BFFF20216815
:102EA000486200BF01206077002099E7BFFF8FFFD5
:102EB000034A0168914202D10121024A1160704720
:102EC000002800403C0E474270B5044600252068AB
:102ED000C06820F0A0002168C860FFF7FBF8054635
:102EE00007E0FFF7F7F8401BB0F57A7F01D9032020
:102EF00070BD2068C06800F020000028F1D00020DC
:102F0000F6E710B504460CB9012010BD606A00B99F
:102F100000BF0021A16294F8510028B9002084F874
:102F20005000204600F034F8022084F85100206858
:102F3000006820F0400021680860D4E901010843DE
:102F4000E16808432169084361690843218B01F462
:102F500000710843E1690843216A0843A16A0843F4
:102F6000216808600421A06901EA1040616A0843F1
:102F7000216848602068C06920F400602168C86149
:102F800000206065012084F851000020BDE70000AA
:102F900010B586B00446142101A8FDF7F5F94B4998
:102FA000206888427ED100BF002000904848006819
:102FB00040F48050464908600846006800F480509C
:102FC000009000BF00BF00BF0020009040481438B0
:102FD000006840F002003E49143908600846006865
:102FE00000F00200009000BF00BF00BF0020009072
:102FF0000846006840F0010008600846006800F0DC
:103000000100009000BF00BF182001900220029034
:1030100001200390032004900520059001A92D486C
:10302000FEF752FF802001900220029001200390C1
:10303000032004900520059001A92748FEF744FFCE
:103040002648274908604FF0C060486000212448A6
:103050008160C1604FF48061016100214161816143
:10306000C1614FF44031016200214162FEF74CFE24
:1030700008B1FEF7FBF800BF1948E064846300BFA5
:1030800016481830174908604FF0C060486040216A
:10309000144881600021C1604FF48061016100210A
:1030A000416100E010E08161C1614FF400310162D3
:1030B00000214162FEF728FE08B1FEF7D7F800BFF5
:1030C0000848A064846300BF06B010BD0030014012
:1030D00044380240000402400000024040640240C4
:1030E0009C090020FC09002070B504462546681E96
:1030F000B0F1807F01D301200FE0681E4FF0E02186
:1031000048610F214FF0FF3004F08AFB00204FF0A0
:10311000E021886107200861002070BD10B50346DA
:10312000002200BF93F83C00012801D1022010BD0D
:10313000012083F83C0000BF22F0FF00CC6840EA89
:10314000040222F440708C6840EA040222F4806099
:103150004C6840EA040222F400600C6840EA040271
:1031600022F480500C6940EA040222F400504C69B9
:1031700040EA040222F48040CC6940EA0402186864
:10318000426400BF002083F83C0000BF00BFCEE7D0
:1031900030B502460B4600BF92F83C00012801D131
:1031A000022030BD012082F83C0000BF022082F8DE
:1031B0003D00106844681068816824F07004186845
:1031C000044310684460184D1068A8421BD0106872
:1031D000B0F1804F17D0154D1068A84213D0144D90
:1031E0001068A8420FD0134D1068A8420BD0124DA2
:1031F0001068A84207D0114D1068A84203D0104DA6
:103200001068A84205D121F0800158680143106878
:103210008160012082F83D0000BF002082F83C0060
:1032200000BF00BFBDE700000000014000040040F7
:1032300000080040000C0040000401400040014034
:103240000018004010B504460CB9012010BD94F8D8
:103250003D0028B9002084F83C00204600F00CF81E
:10326000022084F83D00211D206803F0ADFE0120FE
:1032700084F83D000020E9E708B53F4A0168914223
:103280000FD100BF002100913C49096841F00101C4
:103290003A4A11601146096801F00101009100BF2E
:1032A00069E0374A0168914211D100BF00210091C5
:1032B0003249091F096841F00201304A121F1160AA
:1032C0001146096801F00201009100BF53E02D4A48
:1032D0000168914211D100BF002100912749091FC7
:1032E000096841F00401254A121F1160114609685E
:1032F00001F00401009100BF3DE0234A01689142C2
:1033000011D100BF002100911C49091F096841F03B
:1033100008011A4A121F11601146096801F00801DC
:10332000009100BF27E0194A016891420FD100BF08
:10333000002100911149096841F002010F4A116012
:103340001146096801F00201009100BF13E0104A24
:10335000016891420FD100BF00210091074909681F
:1033600041F40031054A11601146096801F4003149
:10337000009100BF00BF08BD00000140443802407A
:103380000004004000080040000C00400004014020
:10339000004401400146022081F83D000868806831
:1033A00000F00702062A05D00868006840F0010016
:1033B0000B681860012081F83D00002070472DE95E
:1033C000F04104460D4600BF94F83C00012802D1AC
:1033D0000220BDE8F081012084F83C0000BF0220FB
:1033E00084F83D002068866826F0770626F47F463C
:1033F000206886602868502833D00CDC202850D004
:1034000004DC00284BD0102851D149E0302849D0A5
:1034100040284CD139E060282DD0702807D0B0F575
:10342000805F03D0B0F5005F41D10DE040E0D5E909
:1034300002136A68206803F044FE2068866846F03C
:1034400077062068866033E0D5E902136A68206851
:1034500003F037FE2068806840F48040216888606F
:1034600026E0EA686968206803F01CFF50212068A4
:1034700003F032FE1CE0EA686968206803F025FF6B
:103480006021206803F028FE12E0EA68696820687D
:1034900003F008FF4021206803F01EFE08E000BF93
:1034A00000BF00BF2968206803F016FE00E000BFDF
:1034B00000BF012084F83D0000BF002084F83C00DC
:1034C00000BF00BF85E7000010B586B00446142198
:1034D00001A8FCF759FF8849206888421ED100BF27
:1034E000002000908548006840F010008349086083
:1034F0000846006800F01000009000BF00BF4FF4C5
:10350000D4400190022002900020039004900120FA
:10351000059001A97A48FEF7D7FCEBE079492068CD
:10352000884224D100BF002000907448006840F019
:103530000400724908600846006800F0040000902A
:1035400000BF00BF88150190022002900120039067
:1035500002200490059001A96B48FEF7B5FC6B486A
:10356000FFF718FF0821694800F088F9C2E06849B0
:103570002068884225D100BF002000905F48006885
:1035800040F008005D4908600846006800F0080047
:10359000009000BF00BF4FF48040019002200290D5
:1035A0000120039002200490059001A95948FEF7DC
:1035B0008BFC5948FFF7EEFE0821574800F05EF9F2
:1035C00098E05649206888422DD100BF0020009025
:1035D0004A48006840F08000484908600846006892
:1035E00000F08000009000BF00BF4FF4E050019059
:1035F000022002900120039002200490059001A96E
:103600004748FEF761FC4748FFF7C4FE00214548E4
:1036100000F034F90421434800F030F90821414812
:1036200000F02CF966E040492068884239D100BF9B
:10363000002000903148006840F480702F490860F5
:103640000846006800F48070009000BF00BF00BF13
:10365000002000900846006840F00400086008461A
:10366000006800F00400009000BF00BFC02001907F
:10367000022002900020039004900320059001A9ED
:103680002A48FEF721FC40200190022002900020F1
:10369000039004900320059001A91B48FEF714FC39
:1036A00028E023492068884224D100BF00200090F0
:1036B0001248006840F02000104908600846006881
:1036C00000F02000009000BF00BF402001900220C9
:1036D000029001200390022004900320059001A98C
:1036E0001448FEF7F1FB1448FFF754FE002112487E
:1036F00000F0C4F806B010BD0000014030380240B0
:103700000010024000040040000802409C0A002013
:1037100000080040000C0240DC0A0020000C0040C1
:10372000001C02401C0B002000040140002002404D
:1037300000440140001402409C0B002070B5044678
:103740000D46164600BF94F83C00012801D1022026
:1037500070BD012084F83C0000BF022084F83D00C9
:1037600036B1042E1BD0082E31D00C2E5ED145E090
:103770002946206803F0BAFC2068806940F0080000
:10378000216888612068806920F0040021688861D0
:1037900020688069296908432168886147E02946D3
:1037A000206803F0DBFC2068806940F40060216839
:1037B00088612068806920F48060216888612068C1
:1037C0008069296940EA0120216888612FE0294643
:1037D000206803F001FD2068C06940F008002168FE
:1037E000C8612068C06920F004002168C8612068B1
:1037F000C069296908432168C86118E02946206822
:1038000003F026FD2068C06940F400602168C861AB
:103810002068C06920F480602168C8612068C069A0
:10382000296940EA01202168C86100E000BF00BFAB
:10383000012084F83D0000BF002084F83C0000BF58
:1038400000BF85E710B504460CB9012010BD94F8FF
:103850003D0028B9002084F83C00204600F00CF818
:10386000022084F83D00211D206803F0ADFB0120FB
:1038700084F83D000020E9E77047000070B5044679
:103880000E4601223146206803F00AFC0F492068E9
:10389000884203D00E492068884201D1012000E00F
:1038A000002028B12068406C40F400402168486442
:1038B0002068806800F00705062D05D020680068A4
:1038C00040F0010021680860002070BD0000014048
:1038D0000004014010B504460CB9012010BDA069D8
:1038E00000B100E000BF94F8390028B9002084F846
:1038F0003800204600F028F8242084F83900206899
:10390000C06820F400502168C860204603F0F2FC33
:103910002068006920F490402168086120684069AF
:1039200020F02A00216848612068C06840F40050F7
:103930002168C8600020E063202084F8390084F802
:103940003A000020CAE7000010B586B004461421F2
:1039500001A8FCF719FD2F492068884258D100BF03
:10396000002000902C48006840F480202A4908601C
:103970000846006800F48020009000BF00BF00BF30
:103980000020009024481038006840F004002249CC
:10399000103908600846006800F00400009000BF7D
:1039A00000BF4FF44060019002200290002003907D
:1039B000032004900720059001A91848FEF784FA17
:1039C0001748184908604FF000604860002115480A
:1039D0008160C1604FF480610161002141618161BA
:1039E000C1614FF40031016200214162FEF78CF9A0
:1039F00008B1FDF73BFC00BF0A486063846300BF69
:103A0000002204212720FEF741FD2720FEF72EFD8E
:103A100006B010BD00480040403802400008024097
:103A2000286002401C0C002000BFFEE770B5044671
:103A30000D461646308888B9184890ED000A184897
:103A400080ED000A154890ED010A154880ED010A45
:103A5000124890ED020A124880ED020A32461149DE
:103A60000F4805F04FF80E4890ED000A85ED000A6A
:103A700090ED010A85ED010A90ED020A85ED020A3A
:103A8000B7EE000A84ED000AB7EE000A84ED010AE1
:103A9000B7EE000A84ED020A70BD00008812002013
:103AA0007C1200204013002091ED000A0E4A82EDA6
:103AB000000A91ED010A82ED010A91ED020A82ED00
:103AC000020A92ED000A094A82ED000A064A92EDC6
:103AD000010A064A82ED010A034A92ED020A034AEC
:103AE00082ED020A70470000881200207C1200203C
:103AF00010B50E480E4908600320486000210C48AC
:103B00008160C1604FF4102101614FF400114161E7
:103B10000021017641768176C17601774177FDF704
:103B2000DEFE08B1FDF7A2FB10BD000000640040FE
:103B30008008002010B50E480E4908600320486038
:103B400000210C488160C1604FF4102101614FF4E5
:103B5000001141610021017641768176C1760177BD
:103B60004177FDF7BCFE08B1FDF780FB10BD0000FA
:103B700000680040A808002008B500BF00200090A1
:103B80001A48006840F48000184908600846006838
:103B900000F48000009000BF00BF00BF0020009034
:103BA0000846006840F4001008600846006800F409
:103BB0000010009000BF00BF002205210C20FEF77E
:103BC00065FC0C20FEF752FC002205213A20FEF78E
:103BD0005DFC3A20FEF74AFC002205213B20FEF75F
:103BE00055FC3B20FEF742FC08BD00003038024087
:103BF00000B58FB01C220C4908A8FCF7ACFB0021D3
:103C000008A805F0EBF8094908601C2206491C3198
:103C100001A8FCF7A0FB002101A805F0DFF804498A
:103C200008600FB000BD0000B4AF00081400002011
:103C30000400002000B587B0142102A8FCF7A4FB03
:103C400000BF002001907448006840F002007249F3
:103C500008600846006800F00200019000BF00BF45
:103C600000BF002001900846006840F00100086095
:103C70000846006800F00100019000BF00BF00BFCF
:103C8000002001900846006840F0080008600846DF
:103C9000006800F00800019000BF00BF00BF0020D6
:103CA00001900846006840F004000860084600687B
:103CB00000F00400019000BF00BF00BF0020019091
:103CC0000846006840F4807008600846006800F408
:103CD0008070019000BF00BF00BF00200190084627
:103CE000006840F0800008600846006800F080002E
:103CF000019000BF00BF00BF00200190084600688F
:103D000040F0400008600846006800F04000019064
:103D100000BF00BF00BF002001900846006840F0CF
:103D2000200008600846006800F02000019000BFF5
:103D300000BF00BF002001900846006840F010005E
:103D400008600846006800F01000019000BF00BF46
:103D5000012240213148FEF7B7F9012210213048F5
:103D6000FEF7B2F9012211462E48FEF7ADF94020C8
:103D70000290012003900490059002A92748FEF7C5
:103D8000A3F809200290284803900120049002A97A
:103D90002248FEF799F81020029001200390049029
:103DA0000220059002A91E48FEF78EF830200290EE
:103DB0001D4803900120049002A91C48FEF784F8D6
:103DC00001200290039004900220059002A915485A
:103DD000FEF77AF8002206210846FEF757FB062078
:103DE000FEF744FB002205210920FEF74FFB0920C6
:103DF000FEF73CFB002205210A20FEF747FB0A20C4
:103E0000FEF734FB002205211720FEF73FFB1720A9
:103E1000FEF72CFB07B000BD30380240001802400E
:103E2000000002400004024000002110000802408F
:103E300010B50B480B4908600B4848600021094841
:103E40008160C1604FF48041016100214161816165
:103E5000C1610162FEF744F908B1FDF707FA10BD30
:103E6000005C0040D0080020801A060010B50A4807
:103E70000A490860002048607C210848816040F6BB
:103E80007F41C1600021016141618161FEF7A4FFB2
:103E900008B1FDF7EBF910BD00280040240900200F
:103EA00010B50F480F4908604FF482704860002138
:103EB0000C488160C1600221016101214161490218
:103EC00081613821C16100210162416281620A2160
:103ED000C162FFF716F808B1FDF7C8F910BD000080
:103EE000003001404409002000B587B01C2168461D
:103EF000FCF74AFA1548164908600020486000217E
:103F00001348816041F28731C16000210161816104
:103F1000FFF798F908B1FDF7A9F90D48FFF792FCF2
:103F200008B1FDF7A3F960200090002001900290F5
:103F30000490002269460648FFF700FC08B1FDF72F
:103F400095F90348FFF7C0FA07B000BD00440140EF
:103F50009C0B002000B595B000201190129013909A
:103F600014900F9010901C2108A8FCF70DFA202146
:103F70006846FCF709FA394839490860A7204860C3
:103F800000213748816044F61F61C1600021016152
:103F900041618161FFF756F908B1FDF767F94FF408
:103FA0008050119011A92E48FFF709FA08B1FDF7CA
:103FB0005DF92B48FFF746FC08B1FDF757F90020E3
:103FC0000F9010900FA92648FFF7E2F808B1FDF70F
:103FD0004DF9602008904FF4FA60099000200A9093
:103FE0000B900C900D900E90002208A91C48FFF732
:103FF000A5FB08B1FDF73AF900200990042208A9B1
:104000001748FFF79BFB08B1FDF730F9082208A914
:104010001348FFF793FB08B1FDF728F90C2208A914
:104020000F48FFF78BFB08B1FDF720F90020009047
:1040300001900290039004904FF4005005900020EE
:10404000079069460648FFF769F808B1FDF70EF9D1
:104050000348FFF739FA15B000BD00000000014029
:104060005C0A002000B58DB0002009900A900B90EA
:104070000C90079008901C216846FCF785F92048B1
:10408000204908600020486000211E48816042F2FB
:10409000CF01C160002101618161FFF7D3F808B150
:1040A000FDF7E4F84FF48050099009A91548FFF78F
:1040B00086F908B1FDF7DAF81248FFF7C3FB08B13B
:1040C000FDF7D4F800200790089007A90D48FFF7E6
:1040D0005FF808B1FDF7CAF8602000900020019059
:1040E00002900490082269460648FFF727FB08B1B2
:1040F000FDF7BCF80348FFF7E7F90DB000BD00007D
:10410000000400409C0A002000B58DB000200990FA
:104110000A900B900C90079008901C216846FCF7C1
:1041200033F9204820490860A720486000211E4834
:1041300081604FF6FF71C160002101618161FFF76D
:1041400081F808B1FDF792F84FF48050099009A961
:104150001548FFF734F908B1FDF788F81248FFF762
:1041600071FB08B1FDF782F800200790089007A9BD
:104170000D48FFF70DF808B1FDF778F860200090C2
:104180000020019002900490082269460648FFF73B
:10419000D5FA08B1FDF76AF80348FFF795F90DB0B5
:1041A00000BD000000080040DC0A002000B58DB012
:1041B000002009900A900B900C90079008901C2109
:1041C0006846FCF7E1F82848284908600020486064
:1041D0000021264881604FF6FF71C1600021016116
:1041E0008161FFF72FF808B1FDF740F84FF48050D8
:1041F000099009A91D48FFF7E2F808B1FDF736F864
:104200001A48FFF71FFB08B1FDF730F800200790B0
:10421000089007A91548FEF7BBFF08B1FDF726F87F
:1042200060200090002001900290049000226946D6
:104230000E48FFF783FA08B1FDF718F80422694623
:104240000A48FFF77BFA08B1FDF710F80822694623
:104250000648FFF773FA08B1FDF708F80348FFF7BF
:1042600033F90DB000BD0000000C00401C0B002015
:1042700000B595B0002011901290139014900F90FB
:1042800010901C2108A8FCF77FF820216846FCF755
:104290007BF8334833490860A72048600021314843
:1042A000816044F61F61C16000210161416181614B
:1042B000FEF7C8FF08B1FCF7D9FF4FF4805011900A
:1042C00011A92848FFF77BF808B1FCF7CFFF254874
:1042D000FFF7B8FA08B1FCF7C9FF00200F90109063
:1042E0000FA92048FEF754FF08B1FCF7BFFF60207C
:1042F0000890002009900A900B900C900D900E9061
:10430000002208A91748FFF719FA08B1FCF7AEFF19
:10431000042208A91348FFF711FA08B1FCF7A6FF19
:10432000082208A90F48FFF709FA08B1FCF79EFF19
:104330000020009001900290039004904FF40050F0
:1043400005900020079069460648FEF7E7FE08B191
:10435000FCF78CFF0348FFF7B7F815B000BD00006D
:10436000000401405C0B002010B50B480B490860AD
:104370000B484860002109488160C1604FF48061AA
:1043800001610C21416100218161C161FFF7A2FA45
:1043900008B1FCF76BFF10BD00480040DC0B0020AB
:1043A000A086010000BFFEE770470000B0EE401A93
:1043B00010B99FED790A704790ED100A80ED110A4F
:1043C00090ED0F0A80ED100AC0ED060A80ED071A85
:1043D00030EEC10A80ED0F0A0178002975D190ED09
:1043E000010AD0ED0F1A20EE210A80ED090A90EDA6
:1043F0000A0AD0ED021A90ED0F2A01EE820A80ED32
:104400000A0A90ED0D0A80ED0E0A90ED0C0A80ED7F
:104410000D0A90ED0F0AD0ED101A30EE610A80ED12
:104420000C0A90ED030AD0ED0C1A20EE210A80ED63
:104430000B0A90ED0A0AD0ED051AB4EEE10AF1EE8E
:1044400010FA04DD90ED050A80ED0A0A10E090ED07
:104450000A0AD0ED051AF1EE611AB4EEE10AF1EEA6
:1044600010FA05D290ED050AB1EE400A80ED0A0A75
:1044700090ED090AD0ED0A1A30EE210AD0ED0B1AA0
:1044800030EE210A80ED080A90ED080AD0ED041AFA
:10449000B4EEE10AF1EE10FA04DD90ED040A80EDCD
:1044A000080A76E090ED080AD0ED041AF1EE611AE0
:1044B000B4EEE10AF1EE10FA6BD290ED040AB1EE1F
:1044C000400A80ED080A64E0FFE70178012960D125
:1044D00090ED0F0AD0ED101A30EE610AD0ED011AFE
:1044E00020EE210A80ED090A90ED020AD0ED0F1AA4
:1044F00020EE210A80ED0A0A90ED0D0A80ED0E0AE9
:1045000090ED0C0A80ED0D0A90ED0F0AD0ED101A17
:10451000B0EE002A02EE610AD0ED111A30EE210A47
:1045200080ED0C0A90ED030AD0ED0C1A20EE210A62
:1045300080ED0B0A90ED090AD0ED0A1A30EE210A3F
:10454000D0ED0B1A30EE210AD0ED081A30EE210A18
:1045500080ED080A90ED080AD0ED041AB4EEE10AE5
:10456000F1EE10FA04DD90ED040A80ED080A10E087
:1045700090ED080AD0ED041AF1EE611AB4EEE10AEA
:10458000F1EE10FA05D290ED040AB1EE400A80ED8A
:10459000080A90ED080A0EE70000000000B102B919
:1045A0007047017092ED001A80ED011A92ED011A28
:1045B00080ED021A92ED021A80ED031A80ED040AD2
:1045C000C0ED050A9FED0C1A80ED0E1A80ED0D1A54
:1045D00080ED0C1A9FED081A80ED081A80ED0B1A79
:1045E00080ED0A1A80ED091A80ED111A80ED101A7B
:1045F00080ED0F1A00BFD3E70000000010B5234B79
:104600001B685B6943F04003204C246863611F4BC7
:104610001B68DB6843F010031C4C2468E3601C4BF0
:104620001B681B6823F00103194C2468236007E012
:10463000174B1B681B6823F00103154C246823608B
:10464000134B1B681B6803F00103002BF0D1114BC7
:104650000F4C2468A3600E4B1B68D8600C4B1B6882
:1046600019610B4B1B685A60094B1B681B6843F4AC
:104670008023074C24682360054B1B681B6843F0AC
:104680000103034C2468236010BD0000DC0B0020F4
:104690001C0C00200448004011490968C96821F435
:1046A00000510F4A1268D1600E490968096821F06B
:1046B00001010C4A126811600A49096848600949F9
:1046C0000968096841F00101064A1268116004494D
:1046D0000968C96841F40051014A1268D160704705
:1046E000DC0B00201C0C002004480068C06820F48B
:1046F000005002490968C86070470000DC0B0020C8
:1047000070B5044600252068C06800F04000A0B9DC
:10471000681E2168C860FDF7DDFC054607E0FDF76F
:10472000D9FC401BB0F57A7F01D9032070BD206809
:10473000C06800F040000028F1D00020F6E700003B
:1047400010B5FB4B1B681B6823F00103F84C246871
:104750002360F84B1B681B6823F00103F54C2468A9
:10476000236007E0F24B1B681B6823F00103F04C49
:1047700024682360EE4B1B681B6803F00103002BC9
:10478000F0D107E0EB4B1B681B6823F00103E94CF9
:1047900024682360E74B1B681B6803F00103002BB0
:1047A000F0D1E54BDB6C1B68E44CA34275D9E24BBE
:1047B000DB6C1B68E24CA34201D1202368E0DE4B96
:1047C000DB6C1B68DD4C483CA34201D120235FE039
:1047D000D94BDB6C1B68DA4C6034A34201D1202337
:1047E00056E0D54BDB6C1B68D44C1834A34201D186
:1047F00020234DE0D04BDB6C1B68D14C1834A34216
:1048000001D1DB1444E0CC4BDB6C1B68CB4C303C5F
:10481000A34201D1DB143BE0C74BDB6C1B68C84CE7
:104820007834A34201D1DB1432E0C34BDB6C1B684C
:10483000C24C3034A34201D1DB1429E0BE4BDB6C07
:104840001B68BF4C3034A34202D14FF400131FE069
:10485000B94BDB6C1B68B94C183CA34202D14FF436
:10486000001315E0B44BDB6C1B68B54C9034A342CD
:1048700002D14FF400130BE0AF4BDB6C1B68AF4C65
:104880004834A34202D14FF4001301E04FF000631B
:10489000AA4C4C3C236076E1FFE7A74BDB6C1B681E
:1048A000A74CA834A34275D9A34BDB6C1B68A44C5E
:1048B000A34201D1202369E09F4BDB6C1B689F4C16
:1048C000483CA34201D1202360E09B4BDB6C1B687A
:1048D0009B4C6034A34201D1202357E0964BDB6C04
:1048E0001B68964C1834A34201D120234EE0924B12
:1048F000DB6C1B68924C1834A34201D1DB1445E0F9
:104900008D4BDB6C1B688D4C303CA34201D1DB141A
:104910003CE0894BDB6C1B68894C7834A34201D1A5
:10492000DB1433E0844BDB6C1B68844C3034A342D3
:1049300001D1DB142AE0804BDB6C1B68804C3034E7
:10494000A34202D14FF4001320E07B4BDB6C1B68C9
:104950007A4C183CA34202D14FF4001316E0764B78
:10496000DB6C1B68764C9034A34202D14FF40013E9
:104970000CE0714BDB6C1B68704C4834A34203D1D4
:104980004FF4001302E005E04FF000636B4C503C25
:104990002360F8E0684BDB6C1B68694C4834A34229
:1049A00075D9654BDB6C1B68654CA34201D1202394
:1049B00068E0614BDB6C1B68604C483CA34201D152
:1049C00020235FE05C4BDB6C1B685D4C6034A342D2
:1049D00001D1202356E0584BDB6C1B68574C183430
:1049E000A34201D120234DE0534BDB6C1B68544C98
:1049F0001834A34201D1DB1444E04F4BDB6C1B683D
:104A00004E4C303CA34201D1DB143BE04A4BDB6C03
:104A10001B684B4C7834A34201D1DB1432E0464B87
:104A2000DB6C1B68454C3034A34201D1DB1429E018
:104A3000414BDB6C1B68424C3034A34202D14FF433
:104A400000131FE03C4BDB6C1B683C4C183CA34242
:104A500002D14FF4001315E0374BDB6C1B68384C68
:104A60009034A34202D14FF400130BE0324BDB6CC5
:104A70001B68324C4834A34202D14FF4001301E0CA
:104A80004FF000632E4C103CE3607CE0FFE72A4BC4
:104A9000DB6C1B682A4CA34201D1202370E0264B1B
:104AA000DB6C1B68254C483CA34201D1202367E006
:104AB000214BDB6C1B68224C6034A34201D12023C4
:104AC0005EE01D4BDB6C1B681C4C1834A34201D10B
:104AD000202355E0184BDB6C1B68194C1834A3429B
:104AE00001D1DB144CE0144BDB6C1B68134C303CE5
:104AF000A34201D1DB1443E00F4BDB6C1B68104C6D
:104B00007834A34201D1DB143AE00B4BDB6C1B6819
:104B10000A4C3034A34201D1DB1431E0064BDB6C8C
:104B20001B68074C3034A3420CD14FF4001327E02C
:104B30009C090020FC090020440900205864024020
:104B400010600240F74BDB6C1B68F74CA34202D1AC
:104B50004FF4001314E0F34BDB6C1B68F34CA342DF
:104B600002D14FF400130BE0EE4BDB6C1B68EE4CF4
:104B70006034A34202D14FF4001301E04FF0006310
:104B8000EA4CA03CA360E74BDB6C1B68E64C183496
:104B9000A34274D9E34BDB6C1B68E44C903CA3420A
:104BA00001D1102366E0DF4BDB6C1B68DE4C303C30
:104BB000A34201D110235DE0DA4BDB6C1B68DB4CB8
:104BC000303CA34201D1102354E0D64BDB6C1B6870
:104BD000D54C3034A34201D110234BE0D14BDB6CD8
:104BE0001B68D24C783CA34201D11B1542E0CD4B4F
:104BF000DB6C1B68CC4C183CA34201D11B1539E07F
:104C0000C84BDB6C1B68C94C183CA34201D11B1577
:104C100030E0C44BDB6C1B68C34C4834A34201D169
:104C20001B1527E0BF4BDB6C1B68C04C603CA342EC
:104C300002D14FF480131DE0BA4BDB6C1B68BA4CF9
:104C4000A34202D14FF4801314E0B64BDB6C1B6817
:104C5000B64CA34202D14FF480130BE0B14BDB6C96
:104C60001B68B14C6034A34202D14FF4801301E0C1
:104C70004FF08063AC4C343C236070E1FFE7A94BFC
:104C8000DB6C1B68A94C1834A34274D9A54BDB6CB0
:104C90001B68A64C903CA34201D1102366E0A14BB7
:104CA000DB6C1B68A04C303CA34201D110235DE0BB
:104CB0009C4BDB6C1B689D4C303CA34201D1102304
:104CC00054E0984BDB6C1B68974C3034A34201D105
:104CD00010234BE0934BDB6C1B68944C783CA34255
:104CE00001D11B1542E08F4BDB6C1B688E4C183CCE
:104CF000A34201D11B1539E08A4BDB6C1B688B4C3E
:104D0000183CA34201D11B1530E0864BDB6C1B68BD
:104D1000854C4834A34201D11B1527E0814BDB6C45
:104D20001B68824C603CA34202D14FF480131DE00B
:104D30007C4BDB6C1B687C4CA34202D14FF480138C
:104D400014E0784BDB6C1B68784CA34202D14FF423
:104D500080130BE0734BDB6C1B68734C6034A34215
:104D600002D14FF4801301E04FF080636E4C383C69
:104D70002360F4E0FFE76B4BDB6C1B686B4C483C3B
:104D8000A34274D9674BDB6C1B68684C903CA34210
:104D900001D1102366E0634BDB6C1B68624C303C36
:104DA000A34201D110235DE05E4BDB6C1B685F4CBE
:104DB000303CA34201D1102354E05A4BDB6C1B68FA
:104DC000594C3034A34201D110234BE0554BDB6CDE
:104DD0001B68564C783CA34201D11B1542E0514B55
:104DE000DB6C1B68504C183CA34201D11B1539E009
:104DF0004C4BDB6C1B684D4C183CA34201D11B157E
:104E000030E0484BDB6C1B68474C4834A34201D16F
:104E10001B1527E0434BDB6C1B68444C603CA342F2
:104E200002D14FF480131DE03E4BDB6C1B683E4CFF
:104E3000A34202D14FF4801314E03A4BDB6C1B68A1
:104E40003A4CA34202D14FF480130BE0354BDB6C9C
:104E50001B68354C6034A34202D14FF4801301E04B
:104E60004FF08063314CA03CE36078E0FFE72D4BCE
:104E7000DB6C1B682D4C903CA34201D110236BE0EE
:104E8000284BDB6C1B68284C303CA34201D110231B
:104E900062E0244BDB6C1B68244C303CA34201D104
:104EA000102359E01F4BDB6C1B681F4C3034A342AE
:104EB00001D1102350E01B4BDB6C1B681B4C783C72
:104EC000A34201D11B1547E0164BDB6C1B68164C47
:104ED000183CA34201D11B153EE0124BDB6C1B6852
:104EE000124C183CA34201D11B1535E00D4BDB6C75
:104EF0001B680D4C4834A34201D11B152CE0094B13
:104F0000DB6C1B68094C603CA34202D14FF4801358
:104F100022E0044BDB6C1B68034CA34208D14FF426
:104F2000801319E04409002040640240A060024060
:104F3000F74BDB6C1B68F74CA34202D14FF4801394
:104F40000AE0F34BDB6C1B68F34CA34202D14FF435
:104F5000801301E04FF08063EE4CA03CA360EC4B6B
:104F6000DB6C1B68EC4C483CA34274D9E84BDB6C0F
:104F70001B68E84C903CA34201D1082366E0E44B57
:104F8000DB6C1B68E44C903CA34201D108235DE03C
:104F9000DF4BDB6C1B68DF4C303CA34201D10823A4
:104FA00054E0DB4BDB6C1B68DB4C303CA34201D193
:104FB00008234BE0D64BDB6C1B68D64C783CA342F5
:104FC00001D15B1542E0D24BDB6C1B68D24C783CC4
:104FD000A34201D15B1539E0CD4BDB6C1B68CD4C96
:104FE000183CA34201D15B1530E0C94BDB6C1B6858
:104FF000C94C183CA34201D15B1527E0C44BDB6CC4
:105000001B68C44C603CA34202D14FF400231DE056
:10501000BF4BDB6C1B68C04C603CA34202D14FF419
:10502000002313E0BA4BDB6C1B68BA4CA34202D1DD
:105030004FF400230AE0B64BDB6C1B68B64CA3426E
:1050400002D14FF4002301E04FF00073B24C943CC6
:10505000236070E1FFE7AE4BDB6C1B68AD4C18348E
:10506000A34274D9AA4BDB6C1B68AA4C903CA342A8
:1050700001D1082366E0A64BDB6C1B68A64C903C74
:10508000A34201D108235DE0A14BDB6C1B68A14C5E
:10509000303CA34201D1082354E09D4BDB6C1B68DC
:1050A0009D4C303CA34201D108234BE0984BDB6C74
:1050B0001B68984C783CA34201D15B1542E0944BAD
:1050C000DB6C1B68944C783CA34201D15B1539E042
:1050D0008F4BDB6C1B688F4C183CA34201D15B15D6
:1050E00030E08B4BDB6C1B688B4C183CA34201D12E
:1050F0005B1527E0864BDB6C1B68864C603CA3424B
:1051000002D14FF400231DE0814BDB6C1B68824C05
:10511000603CA34202D14FF4002313E07C4BDB6CD4
:105120001B687C4CA34202D14FF400230AE0784B69
:10513000DB6C1B68784CA34202D14FF4002301E0E2
:105140004FF00073744C983C2360F4E0FFE7704B21
:10515000DB6C1B686F4C483CA34274D96C4BDB6C16
:105160001B686C4C903CA34201D1082366E0684B5D
:10517000DB6C1B68684C903CA34201D108235DE0C6
:10518000634BDB6C1B68634C303CA34201D10823AA
:1051900054E05F4BDB6C1B685F4C303CA34201D199
:1051A00008234BE05A4BDB6C1B685A4C783CA342FB
:1051B00001D15B1542E0564BDB6C1B68564C783CCA
:1051C000A34201D15B1539E0514BDB6C1B68514C9C
:1051D000183CA34201D15B1530E04D4BDB6C1B68E2
:1051E0004D4C183CA34201D15B1527E0484BDB6CCA
:1051F0001B68484C603CA34202D14FF400231DE0E1
:10520000434BDB6C1B68444C603CA34202D14FF41F
:10521000002313E03E4BDB6C1B683E4CA34202D1E3
:105220004FF400230AE03A4BDB6C1B683A4CA34274
:1052300002D14FF4002301E04FF00073354CA03C45
:10524000E36078E0FFE7324BDB6C1B68314C903C4D
:10525000A34201D108236CE02D4BDB6C1B682E4C64
:10526000903CA34201D1082363E0294BDB6C1B680F
:10527000284C303CA34201D108235AE0244BDB6C7C
:105280001B68254C303CA34201D1082351E0204B40
:10529000DB6C1B681F4C783CA34201D15B1548E0D6
:1052A0001B4BDB6C1B681C4C783CA34201D15B158B
:1052B0003FE0174BDB6C1B68164C183CA34201D136
:1052C0005B1536E0124BDB6C1B68134C183CA34299
:1052D00001D15B152DE00E4BDB6C1B680D4C603C67
:1052E000A34202D14FF4002323E0094BDB6C1B687F
:1052F000094C603CA34202D14FF4002319E0044B57
:10530000DB6C1B68034CA34208D14FF4002310E070
:1053100044090020A0600240A0640240F84BDB6C0E
:105320001B68F84CA34202D14FF4002301E04FF078
:105330000073F54CA360F24BDB6C1B68F14C483CEE
:10534000A34275D9EE4BDB6C1B68EF4C1034A342C3
:1053500001D1042368E0EA4BDB6C1B68E94C903C0C
:10536000A34201D104235FE0E54BDB6C1B68E64CF4
:105370007034A34201D1042356E0E14BDB6C1B687F
:10538000E04C303CA34201D104234DE0DC4BDB6C0C
:105390001B68DD4C2834A34201D19B1544E0D84B57
:1053A000DB6C1B68D74C783CA34201D19B153BE0DA
:1053B000D34BDB6C1B68D44C8834A34201D19B15C2
:1053C00032E0CF4BDB6C1B68CE4C183CA34201D1C2
:1053D0009B1529E0CA4BDB6C1B68CB4C4034A342C5
:1053E00002D14FF480231FE0C54BDB6C1B68C54C1A
:1053F000603CA34202D14FF4802315E0C04BDB6C2C
:105400001B68C14CA034A34202D14FF480230BE0AF
:10541000BB4BDB6C1B68BB4CA34203D14FF4802316
:1054200002E005E04FF08073B64C943C236071E1DC
:10543000B34BDB6C1B68B44CB834A34275D9B04B8A
:10544000DB6C1B68B04C1034A34201D1042367E02D
:10545000AB4BDB6C1B68AB4C903CA34201D10423EB
:105460005EE0A74BDB6C1B68A74C7034A34201D1F4
:10547000042355E0A24BDB6C1B68A24C303CA342DA
:1054800001D104234CE09E4BDB6C1B689E4C2834FE
:10549000A34201D19B1543E0994BDB6C1B68994CEF
:1054A000783CA34201D19B153AE0954BDB6C1B681D
:1054B000954C8834A34201D19B1531E0904BDB6CB5
:1054C0001B68904C183CA34201D19B1528E08C4BE3
:1054D000DB6C1B688C4C4034A34202D14FF4802318
:1054E0001EE0874BDB6C1B68864C603CA34202D1FC
:1054F0004FF4802314E0824BDB6C1B68824CA03499
:10550000A34202D14FF480230AE07D4BDB6C1B6881
:105510007C4CA34202D14FF4802301E04FF0807312
:10552000784C983C2360F5E0FFE7754BDB6C1B681B
:10553000754C5834A34274D9714BDB6C1B68724CA8
:105540001034A34201D1042368E06D4BDB6C1B686F
:105550006C4C903CA34201D104235FE0684BDB6CB0
:105560001B68694C7034A34201D1042356E0644B9C
:10557000DB6C1B68634C303CA34201D104234DE03B
:105580005F4BDB6C1B68604C2834A34201D19B1538
:1055900044E05B4BDB6C1B685A4C783CA34201D166
:1055A0009B153BE0564BDB6C1B68574C8834A34281
:1055B00001D19B1532E0524BDB6C1B68514C183CFF
:1055C000A34201D19B1529E04D4BDB6C1B684E4C6F
:1055D0004034A34202D14FF480231FE0484BDB6CE0
:1055E0001B68484C603CA34202D14FF4802315E075
:1055F000434BDB6C1B68444CA034A34202D14FF4F4
:1056000080230BE03E4BDB6C1B683E4CA34203D176
:105610004FF4802302E004E04FF080733A4CE360E3
:1056200078E0374BDB6C1B68374C1034A34201D158
:1056300004236DE0324BDB6C1B68324C903CA34280
:1056400001D1042364E02E4BDB6C1B682E4C7034BC
:10565000A34201D104235BE0294BDB6C1B68294C7E
:10566000303CA34201D1042352E0254BDB6C1B6884
:10567000254C2834A34201D19B1549E0204BDB6C1B
:105680001B68204C783CA34201D19B1540E01C4B89
:10569000DB6C1B681C4C8834A34201D19B1537E09E
:1056A000174BDB6C1B68174C183CA34201D19B15B0
:1056B0002EE0134BDB6C1B68134C4034A34202D129
:1056C0004FF4802324E00E4BDB6C1B680D4C603CD8
:1056D000A34202D14FF480231AE0094BDB6C1B6814
:1056E000094CA034A34202D14FF4802310E0044BB4
:1056F000DB6C1B68034CA34208D14FF4802307E006
:1057000044090020A0640240006002404FF0807312
:10571000FE4CA360FE4BDB6C1B68FE4CA34276D9AB
:10572000FB4BDB6C1B68F94C1034A34201D1012305
:1057300069E0F74BDB6C1B68F64C483CA34201D197
:10574000012360E0F24BDB6C1B68F04C7034A34229
:1057500001D1012357E0EE4BDB6C1B68ED4C183494
:10576000A34201D101234EE0E94BDB6C1B68E74CFF
:105770002834A34201D1402345E0E54BDB6C1B6894
:10578000E44C303CA34201D140233CE0E04BDB6CD5
:105790001B68DE4C8834A34201D1402333E0DC4B4C
:1057A000DB6C1B68DB4C3034A34201D140232AE080
:1057B000D74BDB6C1B68D54C4034A34202D14FF46D
:1057C000803320E0D24BDB6C1B68D24C183CA342E8
:1057D00002D14FF4803316E0CD4BDB6C1B68CB4C11
:1057E000A034A34202D14FF480330CE0C84BDB6CF1
:1057F0001B68C84C4834A34203D14FF4803302E005
:1058000005E04FF48003C34C4C3C23606EE1C04B79
:10581000DB6C1B68BD4CB834A34276D9BC4BDB6C47
:105820001B68BA4C1034A34201D1012369E0B84B84
:10583000DB6C1B68B74C483CA34201D1012360E0FC
:10584000B34BDB6C1B68B14C7034A34201D1012314
:1058500057E0AF4BDB6C1B68AE4C1834A34201D150
:1058600001234EE0AA4BDB6C1B68A84C2834A342F2
:1058700001D1402345E0A64BDB6C1B68A54C303CB6
:10588000A34201D140233CE0A14BDB6C1B689F4C41
:105890008834A34201D1402333E09D4BDB6C1B686D
:1058A0009C4C3034A34201D140232AE0984BDB6C5E
:1058B0001B68964C4034A34202D14FF4803320E061
:1058C000934BDB6C1B68934C183CA34202D14FF402
:1058D000803316E08E4BDB6C1B688C4CA034A342EB
:1058E00002D14FF480330CE0894BDB6C1B68894C90
:1058F0004834A34203D14FF4803302E005E04FF473
:105900008003844C503C2360F0E0814BDB6C1B68CF
:105910007E4C5834A34275D97D4BDB6C1B687B4CA5
:105920001034A34201D1012369E0794BDB6C1B6881
:10593000784C483CA34201D1012360E0744BDB6CFE
:105940001B68724C7034A34201D1012357E0704BA5
:10595000DB6C1B686F4C1834A34201D101234EE06D
:105960006B4BDB6C1B68694C2834A34201D140238C
:1059700045E0674BDB6C1B68664C303CA34201D1B1
:1059800040233CE0624BDB6C1B68604C8834A342D4
:1059900001D1402333E05E4BDB6C1B685D4C30343F
:1059A000A34201D140232AE0594BDB6C1B68574CC2
:1059B0004034A34202D14FF4803320E0544BDB6CDF
:1059C0001B68544C183CA34202D14FF4803316E0BC
:1059D0004F4BDB6C1B684D4CA034A34202D14FF4FB
:1059E00080330CE04A4BDB6C1B684A4C4834A342C2
:1059F00003D14FF4803302E004E04FF48003434CC2
:105A0000E36073E0424BDB6C1B68404C1034A342F4
:105A100001D1012368E03E4BDB6C1B683D4C483CE8
:105A2000A34201D101235FE0394BDB6C1B68374C8B
:105A30007034A34201D1012356E0354BDB6C1B6867
:105A4000344C1834A34201D101234DE0304BDB6CC0
:105A50001B682E4C2834A34201D1402344E02C4B38
:105A6000DB6C1B682B4C303CA34201D140233BE054
:105A7000274BDB6C1B68254C8834A34201D14023A3
:105A800032E0234BDB6C1B68224C3034A34201D143
:105A9000402329E01E4BDB6C1B681C4C4034A342A6
:105AA00002D14FF480331FE0194BDB6C1B68194C9B
:105AB000183CA34202D14FF4803315E0144BDB6C49
:105AC0001B68124CA034A34202D14FF480330BE088
:105AD0000F4BDB6C1B680F4C4834A34202D14FF4D0
